:0400000080311D2806
:100008007E1480312000911E0A280B281B2891128B
:1000180023001D191028112815289D1C142815289F
:1000280019289D0190309D001B281908FC007E109E
:10003800090080311F289C308400833085003C30C3
:1000480086000030870018308331CC238031FC01D2
:100058007E10200080313028F03021009B002300E2
:100068008C010F308D008E010F3021008C002F3055
:100078008D008E0122008C018D018E0121009713C5
:100088000F3024008C008D018E0129001708F039EB
:100098000138970080309500FF30940019303D00FA
:1000A800950080302C009600FC3025009F052C0020
:1000B800950194011A303D00970080302C0099007A
:1000C800F33025009F052C00980197011B303D0057
:1000D800A10080302C009C00CF3025009F052C000B
:1000E8009B019A0115303D00A3009C302500930028
:1000F800FC309E05920191011D303D00A500803025
:100108003B009B0040309E009F01A001920191019D
:100118000B309400533093009C3096003F3095008C
:10012800980197019A0199011530FB004B30FA00AC
:10013800BE30890B9D28FA0B9D28FB0B9D280032A9
:100148001E303D00A40080303B00AB004030AE00C4
:10015800AF01B001A201A1010B30A400B730A30088
:100168009C30A6003F30A500A801A701AA01A9015B
:100178000D303C00BD0024303D009C00243023009D
:100188009E0090309D0008309F00A0309B000130F9
:100198009C0020009112210091160B178B17AC3090
:1001A80029009000A03091003C3086000030870084
:1001B80020308400003085001830FA0016001A003C
:1001C800FA0BE228A8302000B800FD30B9008331CE
:1001D800C1238031700871040319F328F428152904
:1001E80020003908F7003808F60083310A238031E7
:1001F80020003908F7003808F6008231972280314C
:1002080020003908F7003808F6008131B121803123
:1002180020003908F7003808F6008231242280319E
:100228002D290030F600F70083310A238031003091
:10023800F600F7008231972280310030F600F7008F
:100248008131B12180310030F600F700823124225B
:1002580080318331D22380316830FA00E430890B51
:100268003329FA0B3329003201302000B807003057
:10027800B93D3908803AFA0082307A02031D4629CE
:1002880059303802031C49294A29EB2858302000E4
:10029800BA000230BB008331B42380317008710486
:1002A800031957295829792920003B08F7003A08EB
:1002B800F60083310A23803120003B08F7003A0812
:1002C800F60082319722803120003B08F7003A0877
:1002D800F6008131B121803120003B08F7003A084F
:1002E800F60082312422803191290030F600F7008F
:1002F80083310A2380310030F600F70082319722DB
:1003080080310030F600F7008131B12180310030B2
:10031800F600F7008231242280318331D5238031E1
:100328006830FA00E430890B9729FA0B97290032D4
:10033800FF302000BA07FF30BB3D3B08803AFA0087
:100348007D307A02031DAA29A8303A020318AD2984
:10035800AE294F29E62880311D287708803AF80011
:1003680082307802031DBA2959307602031CBD2950
:10037800BE29C2295830F6000230F7007708803AC3
:10038800F8007D307802031DCB29A83076020318C7
:10039800CE29CF29D3295830F6000230F700770844
:1003A800803AF80080307802031DDC29013076029B
:1003B800031CDF29E029F529250091017708F900B8
:1003C8007608F800790DF90CF80C790DF90CF80C91
:1003D8007808920015303D00A300A20122000E11FA
:1003E800232AF71FF829F9291D2AFF30F000FF30CA
:1003F800F1007708F3007608F20083317D2381311C
:100408007108F7007008F600250091017708F900D7
:100418007608F800790DF90CF80C790DF90CF80C40
:100428007808920015303D00A200A30122008E1129
:10043800232A3D00A201A30122000E118E110800FB
:100448007708803AF80082307802031D2D2A593047
:100458007602031C302A312A352A5830F600023039
:10046800F7007708803AF8007D307802031D3E2AAD
:10047800A83076020318412A422A462A5830F60044
:100488000230F7007708803AF80080307802031DC0
:100498004F2A01307602031C522A532A682A2C005C
:1004A8009A017708F9007608F800790DF90CF80C2C
:1004B800790DF90CF80C78089B001B303D00A10061
:1004C800A00122000E10962AF71F6B2A6C2A902A88
:1004D800FF30F000FF30F1007708F3007608F200F3
:1004E80083317D2382317108F7007008F6002C00F3
:1004F8009A017708F9007608F800790DF90CF80CDC
:10050800790DF90CF80C78089B001B303D00A00011
:10051800A10122008E10962A3D00A001A10122000F
:100528000E108E1008007708803AF80082307802A2
:10053800031DA02A59307602031CA32AA42AA82A3C
:100548005830F6000230F7007708803AF8007D301E
:100558007802031DB12AA83076020318B42AB52AF6
:10056800B92A5830F6000230F7007708803AF800C8
:1005780080307802031DC22A01307602031CC52A86
:10058800C62ADB2A2C0097017708F9007608F800BC
:10059800790DF90CF80C790DF90CF80C780898001D
:1005A8001A303D009700960122000C13092BF71F03
:1005B800DE2ADF2A032BFF30F000FF30F100770836
:1005C800F3007608F20083317D2382317108F70049
:1005D8007008F6002C0097017708F9007608F800F3
:1005E800790DF90CF80C790DF90CF80C78089800CD
:1005F8001A303D009600970122008C13092B3D000C
:100608009601970122000C138C1308007708803A92
:10061800F80082307802031D132B59307602031C30
:10062800162B172B1B2B5830F6000230F7007708D3
:10063800803AF8007D307802031D242BA83076021A
:100648000318272B282B2C2B5830F6000230F700E4
:100658007708803AF80080307802031D352B013086
:100668007602031C382B392B4E2B2C00940177086B
:10067800F9007608F800790DF90CF80C790DF90CE9
:10068800F80C7808950019303D0095009401220077
:100698000C127C2BF71F512B522B762BFF30F000BE
:1006A800FF30F1007708F3007608F20083317D23EC
:1006B80083317108F7007008F6002C009401770860
:1006C800F9007608F800790DF90CF80C790DF90C99
:1006D800F80C7808950019303D0094009501220027
:1006E8008C127C2B3D009401950122000C128C1277
:1006F8000800F401F501701C822B832B872B7208EC
:10070800F4077308F53D0130F235F30D890B882B9A
:100718000130F136F00C890B8D2B70087104031D24
:10072800962B972B7F2B7508F1007408F0000800B2
:1007380050346C3465346134733465342034653432
:100748006E34743465347234203461342034733434
:100758007434723469346E3467340D340A340034B6
:1007680020000C0CF200F20C720C0139F300F401B9
:100778007308F0007408F100080020000C0C890CC4
:100788000139F200F3017208F0007308F100080063
:10079800FE0012001E00FE0BCD2B003422000E17A7
:0807A800080022000E130800F6
:020000040001F9
:08000000FF3FFF3FFF3FFF3F00
:04000E00C40FFF1B01
:00000001FF
