:0400000080311E2805
:100008007E1480312000911E0A280B281C2891128A
:1000180023001D191028112815289D1C142815289F
:1000280019289D0190309D001C2819082000EC001B
:100038007E100900803120283E30840084308500FD
:10004800C030860000308700183084318124803128
:10005800E701E801E901EA01EB01EC01A0308400C5
:100068000030850020308431872480317E102000C4
:1000780080313E28F03021009B0023008C0107309E
:100088008D008E010F3021008C0027308D008E01ED
:1000980022008C018D018E01210097130F3024005E
:1000A8008C008D018E0129001708F039013897005E
:1000B80080309500FF30940019303D009500803065
:1000C8002C009600FC3025009F052C00950194011A
:1000D8001A303D00960080302C009900F33025003E
:1000E8009F052C00980197011B303D00A10080302E
:1000F8002C009C00CF3025009F052C009B019A0105
:1001080015303D00A3009C3025009300FC309E056F
:100118009201910116303D00A7009C302500970000
:10012800F3309E05960195011D303D00A5008030F5
:100138003B009B0040309E009F01A001920191016D
:100148000B309400533093009C3096003F3095005C
:10015800980197019A01990115302000E6004B306B
:10016800E500BE30890BB628E50BB628E60BB628A5
:1001780000001E303D00A40080303B00AB00403042
:10018800AE00AF01B001A201A1010B30A400B7304D
:10019800A3009C30A6003F30A500A801A701AA0132
:1001A800A9010D303C00BD0024303D009C002430E6
:1001B80023009E0090309D0008309F00A0309B00D7
:1001C80001309C0020009112210091160B178B170B
:1001D800AC3029009000A0309100C030860000307B
:1001E8008700D83084000030850018302000E500F2
:1001F80016001A00E50BFC286F302000E000843060
:10020800E10084317824803177082000E300760803
:10021800E200843156248031002980311E282000D4
:10022800BD006A08803AB80080303802031D1E29D4
:1002380001306902031821292229282901302000C8
:10024800BB000030BC002D2920006A08BC006908EA
:10025800BB006808BA006708B9003008BE0031085A
:10026800BF003208C0003308C1003408C200350896
:10027800C3003608C4003708C5001F30C600003068
:10028800C7002100BF01A629FF302000C607FF30A4
:10029800C73D4608A03E860087010A30A000A1019C
:1002A800A201A301A401A501A601A7013E08A80077
:1002B8003F08A9004008AA004108AB004208AC006A
:1002C8004308AD004408AE004508AF008231F7226C
:1002D800813120002008303E8100FF30BB07FF300D
:1002E800BC3DFF30B907FF30BA3D0A30A000A1017C
:1002F800A201A301A401A501A601A7013E08A80027
:100308003F08A9004008AA004108AB004208AC0019
:100318004308AD004408AE004508AF00823173229F
:10032800813120002008BE002108BF002208C0003B
:100338002308C1002408C2002508C3002608C400F9
:100348002708C5002000460847040319AC29AD2931
:10035800C6293E083F0440044104420443044404BF
:100368004504031DB829B92948293C08803AB80032
:1003780080303802031DC22901303B020318C52909
:10038800C629482920004608A03EA4003A08A6002D
:100398003908A5003D088331A923813108002000D0
:1003A800D600480886008701403FCA00413FCB007D
:1003B8004A0884004B0885001200253A031DE529E8
:1003C800E6295A2A48088600870101308107413109
:1003D8000318810AE701E80103100030031801300F
:1003E800EB00FF30E900FF30EA004808860087018B
:1003F800403FD700413FD80057088400580885007F
:100408001200753A031D092A0A2A502A490886004B
:10041800870101088400850102308107003FCE0072
:10042800013FCF00D001D101D201D301D401D501C0
:100438005708013ECA000030583DCB0048088600E6
:1004480087014A08C03F4B08C13F3F2A4E08B00009
:100458004F08B1005008B2005108B3005208B40068
:100468005308B5005408B6005508B700560881313E
:1004780013218131722A5708840058088500000822
:10048800CA00CB014B08003A03194B2A502A4A08E4
:10049800753A03192A2A502A20004808860087013D
:1004A8000130810741310318810A722A4808860001
:1004B8008701403FCA00413FCB004A0884004B08EF
:1004C80085000008CC00CD014C08F2004D08F3006F
:1004D8005608F400833168238131502A08007130AE
:1004E8008600003087000830F00000301E00F00B56
:1004F8007A2A200020082104220423042404250445
:10050800260427040319892A8A2AE62AF901F90AFE
:10051800992AA035A10DA20DA30DA40DA50DA60D18
:10052800A70D0130F0007008F907A71F9C2A9D2A23
:100538008D2AF135F20DF30DF40DF50DF60DF70DCD
:10054800F80D27082F02031DC32A26082E02031DB3
:10055800C32A25082D02031DC32A24082C02031DC3
:10056800C32A23082B02031DC32A22082A02031DBB
:10057800C32A21082902031DC32A20082802031CB4
:10058800C62AC72AD82A2008A8022108A93B220877
:10059800AA3B2308AB3B2408AC3B2508AD3B260807
:1005A800AE3B2708AF3B7114A736A60CA50CA40CCC
:1005B800A30CA20CA10CA00C0130F902031DE52A22
:1005C800E62A9D2A7108A0007208A1007308A200FB
:1005D8007408A3007508A4007608A5007708A6008B
:1005E8007808A7000800200020082104220423041A
:1005F80024042504260427040319032B042B572B52
:10060800F101F10A132BA035A10DA20DA30DA40D24
:10061800A50DA60DA70D0130F0007008F107A71F62
:10062800162B172B072B27082F02031D352B2608FF
:100638002E02031D352B25082D02031D352B2408FA
:100648002C02031D352B23082B02031D352B2208F2
:100658002A02031D352B21082902031D352B2008EA
:100668002802031C382B392B492B2008A802210803
:10067800A93B2208AA3B2308AB3B2408AC3B25082E
:10068800AD3B2608AE3B2708AF3BA736A60CA50C0A
:10069800A40CA30CA20CA10CA00C0130F102031DA8
:1006A800562B572B172B2808A0002908A1002A0829
:1006B800A2002B08A3002C08A4002D08A5002E08D2
:1006C800A6002F08A7000800740803196C2B6D2BCF
:1006D800722B7408031D712B722B772B72088431CF
:1006E8008D248331A82B7408083E860087011600E4
:1006F80001040319802B812B9F2B7408083E860068
:100708008701403FF500413FF6007408023E86002D
:100718008701403FF700413FF8007808803AF90028
:100728007608803A7902031D9B2B75087702031817
:100738009E2B9F2BA82B7408023E86008701013050
:10074800810741310318810A08002000AB00A61B6D
:10075800AE2BAF2BB42B2608AA002508A900B62B70
:10076800A901AA01A701A801C82B2030F200003076
:10077800F30020002B08F400833168238331013013
:100788002000A7070030A83D2808803AFD002A0865
:10079800803A7D02031DD22B29082702031CD52B82
:1007A800D62BB92B20002B08FA0024088331DE232E
:1007B800833108002000A300A101A201F42B200826
:1007C800FB00FC017B08F2007C08F3007A08F400C7
:1007D80083316823833101302000A1070030A23D16
:1007E80021082307FB007B08860087010108A00079
:1007F8002008031D002C012CE32B0800F5007508C8
:10080800F200F20DF20D2900100872060339720683
:10081800900010140D30890B0F2C00002900901443
:100828009018172C182C142C0F08F4000E08F3003D
:1008380010107408F1007308F00008002000DD00B3
:100848005A08DF005908DE00312C5E30C8005B080A
:10085800C9005D088131D321843120005E088400FD
:100868005F0885001200031D3A2C3B2C292CD90166
:10087800DA01080050346C346534613473346534FB
:10088800203465346E347434653472342034613401
:10089800203473347434723469346E3467340D34EC
:1008A8000A34003462302000E4006108DA0060088D
:1008B800D9006430DB000030843122248431080000
:1008C800F0002000111E692C6A2C652C111270088A
:1008D80023009A00080056346F346C343A342534B7
:1008E80075340D340A3400340C30843102248431D8
:1008F8007108F7007008F6000800FE0012001E00DC
:10090800FE0B822C0034640080010131890B882C95
:0E0918000034F1007108843164248431080039
:020000040001F9
:08000000FF3FFF3FFF3FFF3F00
:04000E00C40FFF1B01
:00000001FF
