:08000000803102288731FD2F39
:10003A000310720D730DF9007908031D252826286F
:10004A002F280030F3000030F2000030F1000030B9
:10005A00F0008C287008F4007108F5007208F600A8
:10006A007308F7001F30F736F60CF50CF40C890B01
:10007A0038287408F800F217FF30F005FF30F10550
:10008A00FF30F2050030F3059630F902F91F4E28C9
:10009A004F2867287908803A973E0318552856282A
:1000AA00572826280130F336F20CF10CF00C890B94
:1000BA0058280130F4007408F907031D65286628DA
:1000CA0057287C2820307902031C6C286D28772851
:1000DA0026280130F035F10DF20DF30D890B6F284A
:1000EA000130F9027908031D7B287C286E287808DC
:1000FA000319802881288C28F009F109F209F309EB
:10010A00F00A0319F10A0319F20A0319F30A08009B
:10011A00F8007808031992289328A728F31F96282D
:10012A009728A7287009FA007109FB007209FC00D8
:10013A007309FD00FA0A0319FB0A0319FC0A0319D9
:10014A00FD0AAF287308FD007208FC007108FB0065
:10015A007008FA007308720471047004031DB6284B
:10016A00B728C0280030F3000030F2000030F10058
:10017A000030F00036299630F900CE280130F4001C
:10018A007408F9070130FD36FC0CFB0CFA0C890BDC
:10019A00C828FE307D05031DD328D428C328E828A3
:1001AA000130F4007408F9070130FA070030FB3D0A
:1001BA000030FC3D0030FD3D0130FD36FC0CFB0CEF
:1001CA00FA0C890BE228FF307D05031DED28EE2885
:1001DA00D528F8280130F9020130FA35FB0DFC0D5B
:1001EA00FD0D890BF228FC1BFB28FC280229023092
:1001FA007902031801290229EF2879180529062905
:10020A000E29FF30FA05FF30FB057F30FC05FF3071
:10021A00FD050310F90C7908F400F501F601F70160
:10022A001830F435F50DF60DF70D890B16297408FB
:10023A00FA047508FB047608FC047708FD047808BC
:10024A000319282929292E29F31F2C292D292E297A
:10025A00FD177D08F3007C08F2007B08F1007A089C
:10026A00F0000800F03021009B0023008C010F30C1
:10027A008D008E010F3021008C002F308D008E01F1
:10028A0022008C018D018E01210097130F3024006A
:10029A008C008D018E0129001708F039013897006A
:1002AA0080309500FF30940019303D009500803071
:1002BA002C009600FC3025009F052C009501940126
:1002CA001A303D00970080302C009900F330250049
:1002DA009F052C00980197011B303D00A10080303A
:1002EA002C009C00CF3025009F052C009B019A0111
:1002FA0015303D00A3009C3025009300FC309E057C
:10030A00920191011D303D00A50080303B009B0009
:10031A0040309E009F01A001920191010B30940090
:10032A00533093009C3096003F3095009801970116
:10033A009A0199012000E501E60120006508F00014
:10034A006608F100890D893B8909F200F300013042
:10035A0080318D20813173082000DE007208DD00B3
:10036A007108DC007008DB008F315A2781310530B3
:10037A002000E4000F30E300F130890BC229E30BBF
:10038A00C229E40BC22901302000E5070030E63D0E
:10039A006608803AE30080306302031DD629B5302F
:1003AA006502031CD929DA29A229B4302000E70002
:1003BA000030E8006708F0006808F100890D893B01
:1003CA008909F200F300013080318D2081317308F0
:1003DA002000DE007208DD007108DC007008DB0016
:1003EA008F315A27813105302000E4000F30E300B5
:1003FA00F130890BFE29E30BFE29E40BFE29FF30BD
:10040A002000E707FF30E83DE81F0C2A0D2ADF2904
:10041A009F2980310228770880392000A400773587
:10042A00AB00F61F192A1A2A1B2A2B142B080319A8
:10043A001F2A202A302A2B0A031D242A252A2D2A7C
:10044A000030F7000030F6000030F5000030F4000C
:10045A00F617F701382A0030F7000030F6000030AE
:10046A00F5000030F40073088039F8007808A40613
:10047A007335AC00F21F422A432A442A2C142C0852
:10048A000319482A492A592A2C0A031D4D2A4E2A99
:10049A00562A0030F3000030F2000030F10000303C
:1004AA00F000F217F301612A0030F3000030F20085
:1004BA000030F1000030F000730872047104700417
:1004CA00031D682A692A822A0030F7000030F600E4
:1004DA000030F5000030F4008030F6047F30F70475
:1004EA002408F8007808F7047708F3007608F20081
:1004FA007508F1007408F000B92B2B08031D862A31
:10050A00872A902A0030F3000030F2000030F10010
:10051A000030F000B92B2B08F800F9017908FB002C
:10052A002C087802FA00031CFB037A087F3EA50018
:10053A0000307B3DA6007708A3007608A200750864
:10054A00A1007408A0000030F7000030F600003067
:10055A00F5000030F4000030AA000030A900003095
:10056A00A8000030A700AC01F82A2C080319BE2AFB
:10057A00BF2AD92A0130A035A10DA20DA30D890BDE
:10058A00C02A0130F435F50DF60DF70D890BC72A8F
:10059A00AA1FD02AD12AD22A74140130A735A80D4D
:1005AA00A90DAA0D890BD32A73082302031DE72A72
:1005BA0072082202031DE72A71082102031DE72A95
:1005CA0070082002031CEA2AEB2AF42A2A17700868
:1005DA00A0027108A13B7208A23B7308A33B013039
:1005EA00F8007808AC071A302C02031CFD2AFE2AF0
:1005FA00BA2A23082204210420040319052B062BF6
:10060A001F2B27141F2B0130F435F50DF60DF70DAE
:10061A00890B092BAA1F122B132B142B74140130CC
:10062A00A735A80DA90DAA0D890B152BFF30A50713
:10063A00FF30A63DF61F222B232B082BAC01AA1F45
:10064A00272B282B442BFF302705F800FF302805DD
:10065A00F900FF302905FA007F302A05FB007B08E4
:10066A007A047904780403193B2B3C2B3F2BAC0109
:10067A00AC0A442B741C422B432B442B3C2B2C08D6
:10068A000319482B492B712B0130F4070030F53D33
:10069A000030F63D0030F73D771C542B552B712B5B
:1006AA007408F8007508F9007608FA007708FB0064
:1006BA000130FC00FB37FA0CF90CF80CFC0B5F2B31
:1006CA007B08F7007A08F6007908F5007808F40044
:1006DA000130A5070030A63D2608803AF800803090
:1006EA007802031D7A2BFF302502031C7D2B7E2BFB
:1006FA008B2BFF302000A5000030A6000030F70049
:10070A000030F6000030F5000030F4002000260822
:10071A00803AF80080307802031D952B01302502BB
:10072A000318982B992BA52B2000A501A6010030B0
:10073A00F7000030F6000030F5000030F400A401A4
:10074A0020002508AB002B1CAB2BAC2BAE2BF617CD
:10075A00B22B7F30F8007808F6052B36F70024080C
:10076A00F8007808F704792A080020004A08803936
:10077A00D7004A35D900C91FC32BC42BC52B59141E
:10078A0059080319C92BCA2BDA2B590A031DCE2B78
:10079A00CF2BD72B0030CA000030C9000030C80068
:1007AA000030C700C917CA01E22B0030CA00003066
:1007BA00C9000030C8000030C7004E088039D80090
:1007CA00580857060319EA2BEB2BEC2B57174E3513
:1007DA00D800CD1FF12BF22BF32B5814580803190C
:1007EA00F72BF82B082C580A031DFC2BFD2B052C84
:1007FA000030CE000030CD000030CC000030CB00FD
:10080A00CD17CE01102C0030CE000030CD000030C4
:10081A00CC000030CB00590858020318152C162CAE
:10082A003C2C571F192C1A2C1E2C8030CF004F0835
:10083A00D7065908DA005808D9005A08D8004708D4
:10084A00DA004B08C7005A08CB004808DA004C08FF
:10085A00C8005A08CC004908DA004D08C9005A08ED
:10086A00CD004A08DA004E08CA005A08CE00DA015A
:10087A005808CF00D0015008D20059084F02D100C1
:10088A00031CD2035208803AD30080305302031D5E
:10089A00502C1A305102031C532C542C862C200045
:1008AA004A08490448044704031D5C2C5E2C0130A5
:1008BA005F2C0030DA000030CA000030C900003076
:1008CA00C8000030C7005808D9008D2C5A1C6E2C5D
:1008DA006F2C732C5A360138DA00752C0310DA0C97
:1008EA00471C782C792C7A2CDA170130CF00CA37BA
:1008FA00C90CC80CC70CCF0B7C2C0130CF004F0899
:10090A00D907200058085902031C8C2C8D2C6B2CFB
:10091A00571B902C912CC72C5908031D952C962CEB
:10092A009F2C0030CA000030C9000030C8000030D7
:10093A00C700C12D4B08C7074C08C83D4D08C93D23
:10094A004E08CA3D4A1CAA2CAB2C532D5A1CAE2C5D
:10095A00AF2CB32C5A360138DA00B52C0310DA0C56
:10096A00471CB82CB92CBA2CDA170130CF00CA3779
:10097A00C90CC80CC70CCF0BBC2C0130CF004F08D8
:10098A00D907532D4A08803ACF004E08803A4F02C1
:10099A00031DD92C4D084902031DD92C4C084802C5
:1009AA00031DD92C4B0847020318DC2CDD2C152D0E
:1009BA00FF30CF00FF30D000FF30D100FF30D2002F
:1009CA0047084B02D30048084C3BD40049084D3B2A
:1009DA00D5004A084E3BD6005308CF075408D03DED
:1009EA005508D13D5608D23D5208CA005108C900DF
:1009FA005008C8004F08C7008030CF004F08D706FC
:100A0A00DA09DA0A5A08031D0B2D0C2D1D2D0130A7
:100A1A00C7070030C83D0030C93D0030CA3D1D2D12
:100A2A004B08C7024C08C83B4D08C93B4E08CA3B95
:100A3A004A08490448044704031D242D252D4F2D37
:100A4A005A08031D292D2A2D4F2D0030CA000030C7
:100A5A00C9000030C8000030C700C12D0130C735B9
:100A6A00C80DC90DCA0D890B342DDA1F3D2D3E2D37
:100A7A003F2D47145A1C422D432D462D0314DA0DDF
:100A8A00482D0310DA0D590803194C2D4D2D4F2D01
:100A9A000130D902C91F522D532D332DD801DA1F27
:100AAA00572D582D662D5A087F3903195D2D5E2D55
:100ABA00612DD801D80A662D471C642D652D662D37
:100ACA005E2D580803196A2D6B2D982D0130C70722
:100ADA000030C83D0030C93D0030CA3D4A1C762D61
:100AEA00772D982D4708CF004808D0004908D10033
:100AFA004A08D2000130D300D237D10CD00CCF0C27
:100B0A00D30B812D5208CA005108C9005008C800E9
:100B1A004F08C700590A0319932D942D982D0130B7
:100B2A00CF004F08D907590A03199C2D9D2DA22DD4
:100B3A005908031DA12DA22DB02D0030CA00003086
:100B4A00C9000030C8000030C7005908031DAE2D87
:100B5A00AF2DB02DD701591CB32DB42DB62DC91701
:100B6A00BA2D7F30CF004F08C9055936CA00D71FA2
:100B7A00BF2DC02DC12DCA170800200030088039AA
:100B8A00BA003035C000AF1FCB2DCC2DCD2D40146F
:100B9A0040080319D12DD22DE12D400A031DD62D6F
:100BAA00D72DDF2D0030B0000030AF000030AE008E
:100BBA000030AD00AF17E92D0030B0000030AF00B3
:100BCA000030AE000030AD0034088039B500350879
:100BDA00BA063435BF00B31FF32DF42DF52D3F149B
:100BEA003F080319F92DFA2D092E3F0A031DFE2D80
:100BFA00FF2D072E0030B4000030B3000030B200E1
:100C0A000030B100B317112E0030B4000030B30029
:100C1A000030B2000030B1003F080319152E162E1D
:100C2A001B2E4008031D1A2E1B2E242E0030B00046
:100C3A000030AF000030AE000030AD00FC2F2D08B0
:100C4A00F00033088E31AD26853171082000C600C8
:100C5A007008C5004508B500B601B701B8013808E3
:100C6A00BE003708BD003608BC003508BB00460880
:100C7A00B500B601B701B8013808C4003708C30087
:100C8A003608C2003508C1002E08F00032088E313D
:100C9A00AD26853171082000C6007008C5004508D8
:100CAA00B500B601B701B8013508BB073608BC3D27
:100CBA003708BD3D3808BE3D4608B500B601B70144
:100CCA00B8013508C1073608C23D3708C33D3808A0
:100CDA00C43D2F08F00031088E31AD2685317108E8
:100CEA002000C6007008C5004508B500B601B70166
:100CFA00B8013508BB073608BC3D3708BD3D380882
:100D0A00BE3D4608B500B601B701B8013508C107AE
:100D1A003608C23D3708C33D3808C43D0830BB35E4
:100D2A00BC0DBD0DBE0D890B942E2E08F0003108A6
:100D3A008E31AD26853171082000C6007008C500C5
:100D4A004508BB074608BC3D0030BD3DBE3D2D08E9
:100D5A00F00032088E31AD26853171082000C600B8
:100D6A007008C5004508BB074608BC3D0030BD3DBC
:100D7A00BE3D0830BB35BC0DBD0DBE0D890BBF2E67
:100D8A002D08F00031088E31AD268531710820001A
:100D9A00C6007008C5004508BB074608BC3D0030C0
:100DAA00BD3DBE3D2E08F00033088E31AD2685319B
:100DBA0071082000C6007008C5004508C10746082A
:100DCA00C23D0030C33DC43D2F08F00032088E31C9
:100DDA00AD26853171082000C6007008C500450897
:100DEA00C1074608C23D0030C33DC43D2F08F0008C
:100DFA0033088E31AD26853171082000C60070088F
:100E0A00C5004508B5004608B600B701B801083064
:100E1A00B535B60DB70DB80D890B0D2F3508C107BD
:100E2A003608C23D3708C33D3808C43D3B08B50003
:100E3A003C08B6003D08B7003E08B8001830B8367E
:100E4A00B70CB60CB50C890B242F3508C107360828
:100E5A00C23D3708C33D3808C43D0830BB35BC0D18
:100E6A00BD0DBE0D890B332F40083F07B500B601F3
:100E7A00B60D3508823EC500FF30363DC6005C2FF0
:100E8A000130C135C20DC30DC40D890B462FBE1FDB
:100E9A004F2F502F512F41140130BB35BC0DBD0DC2
:100EAA00BE0D890B522FFF30C507FF30C63DC31F49
:100EBA005F2F602F452FBF01BE1F642F652F812F23
:100ECA00FF303B05B500FF303C05B600FF303D055D
:100EDA00B7007F303E05B8003808370436043504B9
:100EEA000319782F792F7C2FBF01BF0A812F411C4C
:100EFA007F2F802F812F792F3F080319852F862F67
:100F0A00AE2F0130C1070030C23D0030C33D003072
:100F1A00C43D441C912F922FAE2F4108B5004208C0
:100F2A00B6004308B7004408B8000130B900B83722
:100F3A00B70CB60CB50CB90B9C2F3808C40037088F
:100F4A00C3003608C2003508C1000130C5070030A9
:100F5A00C63D4608803AB50080303502031DB72FDA
:100F6A00FF304502031CBA2FBB2FC52F7F3020004C
:100F7A00C4008030C3000030C2000030C100F02F2E
:100F8A0020004608803AB50080303502031DCF2F75
:100F9A00013045020318D22FD32FDE2F0030200054
:100FAA00C4000030C3000030C2000030C100BA01E2
:100FBA00F02F20004508C000FF30C105FF30C205F0
:100FCA007F30C3050030C405401CEC2FED2FEE2FF7
:100FDA00C3174036C4003A08B5003508C4044408AB
:100FEA00B0004308AF004208AE004108AD00080057
:060FFA00200081313729BF
:101D5A00F800F401F5017008F200F3017208F600C8
:101D6A007308F700781CBA2EBB2EBF2E7608F4072C
:101D7A007708F53D0130F635F70D890BC02E0310B3
:101D8A00F80C7808031DCA2ECB2EB72E7508F10061
:101D9A007408F000080000307005F8000030710582
:101DAA00F90080307205FA007F307305FB007B086A
:101DBA007A0479047804031DE32EE42EEC2E003015
:101DCA00F3000030F2000030F1000030F000003083
:101DDA007405F80000307505F90080307605FA00C0
:101DEA007F307705FB007B087A0479047804031DA9
:101DFA00FF2E002F082F0030F7000030F6000030C9
:101E0A00F5000030F400F31F0B2F0C2F242F0030A5
:101E1A00F8000030F9000030FA008030FB0070084A
:101E2A00F8027108F93B7208FA3B7308FB3B7B081E
:101E3A00F3007A08F2007908F1007808F000F71F39
:101E4A00272F282F402F0030F8000030F9000030EB
:101E5A00FA008030FB007408F8027508F93B76082E
:101E6A00FA3B7708FB3B7B08F7007A08F60079080B
:101E7A00F5007808F4008030F3068030F70677081A
:101E8A007302031D522F76087202031D522F750822
:101E9A007102031D522F740870020318552F562F12
:101EAA00582F0310592F031408004330F30034301D
:101EBA00F2000030F1000030F00020005E08F70068
:101ECA005D08F6005C08F5005B08F4008E31D02648
:101EDA008F310318712F722F7B2F43302000DE00C1
:101EEA003430DD000030DC000030DB0020005E080A
:101EFA00F3005D08F2005C08F1005B08F0000030B6
:101F0A00F7000030F6000030F5000030F4008E31A2
:101F1A00D0268F310318922F932F9C2F0030200048
:101F2A00DE000030DD000030DC000030DB00443031
:101F3A002000CA007930C900C030C8000030C7008C
:101F4A004530B0006D30AF008030AE000030AD00DB
:101F5A004330F3003430F2000030F1000030F0007A
:101F6A005E08F7005D08F6005C08F5005B08F400FF
:101F7A00823110228F3173082000B4007208B30036
:101F8A007108B2007008B1008531C2258F31200076
:101F9A003008CE002F08CD002E08CC002D08CB002B
:101FAA008331BA238F3120004A08E2004908E10050
:101FBA004808E0004708DF006208F3006108F20001
:101FCA006008F1005F08F00080311D208F31710830
:101FDA003B00940020006208F3006108F2006008E8
:101FEA00F1005F08F00080311D208F3170083B003E
:061FFA0093009F17080090
:020000040001F9
:08000000FF3FFF3FFF3FFF3F00
:04000E00C40FFF1B01
:00000001FF
