:0400000080311D2806
:100008007E1480312000911E0A280B281B2891128B
:1000180023001D191028112815289D1C142815289F
:1000280019289D0190309D001B281908FC007E109E
:10003800090080311F2821308400843085003C303D
:100048008600003087001830843151248031FC014B
:100058007E10200080313028F03021009B002300E2
:100068008C0107308D008E010F3021008C00273065
:100078008D008E0122008C018D018E0121009713C5
:100088000F3024008C008D018E0129001708F039EB
:100098000138970080309500FF30940019303D00FA
:1000A800950080302C009600FC3025009F052C0020
:1000B800950194011A303D00960080302C0099007B
:1000C800F33025009F052C00980197011B303D0057
:1000D800A10080302C009C00CF3025009F052C000B
:1000E8009B019A0115303D00A3009C302500930028
:1000F800FC309E059201910116303D00A7009C300E
:1001080025009700F3309E05960195011D303D00AE
:10011800A50080303B009B0040309E009F01A0015D
:10012800920191010B309400533093009C3096005B
:100138003F309500980197019A0199011530FB000D
:100148004B30FA00BE30890BA728FA0BA728FB0B07
:10015800A72800321E303D00A40080303B00AB00D1
:100168004030AE00AF01B001A201A1010B30A400E4
:10017800B730A3009C30A6003F30A500A801A70116
:10018800AA01A9010D303C00BD0024303D009C00AF
:10019800243023009E0090309D0008309F00A0303E
:1001A8009B0001309C0020009112210091160B1732
:1001B8008B17AC3029009000A03091003C308600AD
:1001C8000030870020308400003085001830FA00A5
:1001D80016001A00FA0BEC28A8302000BA00FD30EF
:1001E800BB00843146248031700871040319FD284E
:1001F800FE281F2920003B08F7003A08F600833143
:100208001C23803120003B08F7003A08F6008231B1
:100218003622803120003B08F7003A08F600823188
:10022800A922803120003B08F7003A08F600813106
:10023800C32180313F290030F600F70083318F2336
:1002480080310030F600F70083311C238031003004
:10025800F600F7008231362280310030F600F700D0
:100268008231A922803120003B08F7003A08F600C5
:100278008131C32180318431572480316830FA00BC
:10028800E430890B4529FA0B45290032013020005A
:10029800BA070030BB3D3B08803AFA0082307A0248
:1002A800031D582959303A02031C5B295C29F5289B
:1002B80058302000B8000230B90084313924803128
:1002C80070087104031969296A29832920003908EB
:1002D800F7003808F60083311C23803120003908E4
:1002E800F7003808F60082313622803120003908BC
:1002F800F7003808F6008131C3218031A329003086
:10030800F600F70083318F2380310030F600F700C4
:1003180083311C2380310030F600F7008231362209
:1003280080310030F600F7008231A92280312000A8
:100338003908F7003808F6008131C321803184314B
:100348005A2480316830FA00E430890BA929FA0B65
:10035800A9290032FF302000B807FF30B93D39081D
:10036800803AFA007D307A02031DBC29A830380291
:100378000318BF29C0296129F02880311D28770872
:10038800803AF80082307802031DCC295930760271
:10039800031CCF29D029D4295830F6000230F700A1
:1003A8007708803AF8007D307802031DDD29A830EF
:1003B80076020318E029E129E5295830F6000230D1
:1003C800F7007708803AF80080307802031DEE299C
:1003D80001307602031CF129F229072A2500910130
:1003E8007708F9007608F800790DF90CF80C790D02
:1003F800F90CF80C7808920015303D00A300A20112
:1004080022000E11352AF71F0A2A0B2A2F2AFF303D
:10041800F000FF30F1007708F3007608F20084312D
:10042800022481317108F7007008F6002500910157
:100438007708F9007608F800790DF90CF80C790DB1
:10044800F90CF80C7808920015303D00A200A301C1
:1004580022008E11352A3D00A201A30122000E11AF
:100468008E1108007708803AF80082307802031D60
:100478003F2A59307602031C422A432A472A583019
:10048800F6000230F7007708803AF8007D307802ED
:10049800031D502AA83076020318532A542A582AD2
:1004A8005830F6000230F7007708803AF8008030BC
:1004B8007802031D612A01307602031C642A652A2A
:1004C8007A2A2C009A017708F9007608F800790D45
:1004D800F90CF80C790DF90CF80C78089B001B3016
:1004E8003D00A100A00122000E10A82AF71F7D2AB6
:1004F8007E2AA22AFF30F000FF30F1007708F300CF
:100508007608F2008431022482317108F7007008FD
:10051800F6002C009A017708F9007608F800790DA2
:10052800F90CF80C790DF90CF80C78089B001B30C5
:100538003D00A000A10122008E10A82A3D00A001C4
:10054800A10122000E108E1008007708803AF800EA
:1005580082307802031DB22A59307602031CB52A6C
:10056800B62ABA2A5830F6000230F7007708803ADF
:10057800F8007D307802031DC32AA83076020318DC
:10058800C62AC72ACB2A5830F6000230F700770867
:10059800803AF80080307802031DD42A01307602B0
:1005A800031CD72AD82AED2A2C0097017708F900CE
:1005B8007608F800790DF90CF80C790DF90CF80C9F
:1005C800780898001A303D009600970122008C1395
:1005D8001B2BF71FF02AF12A152BFF30F000FF30F4
:1005E800F1007708F3007608F200843102248231A2
:1005F8007108F7007008F6002C0097017708F900D9
:100608007608F800790DF90CF80C790DF90CF80C4E
:10061800780898001A303D009700960122000C13C4
:100628001B2B3D009601970122000C138C13080028
:100638007708803AF80082307802031D252B59305C
:100648007602031C282B292B2D2B5830F60002305C
:10065800F7007708803AF8007D307802031D362BC2
:10066800A83076020318392B3A2B3E2B5830F60067
:100678000230F7007708803AF80080307802031DCE
:10068800472B01307602031C4A2B4B2B602B2C0086
:1006980094017708F9007608F800790DF90CF80C40
:1006A800790DF90CF80C7808950019303D00950083
:1006B800940122000C128E2BF71F632B642B882BBE
:1006C800FF30F000FF30F1007708F3007608F20001
:1006D8008431022483317108F7007008F6002C0079
:1006E80094017708F9007608F800790DF90CF80CF0
:1006F800790DF90CF80C7808950019303D00940034
:10070800950122008C128E2B3D0094019501220048
:100718000C128C1208007708803AF80082307802B0
:10072800031D982B59307602031C9B2B9C2BA02B66
:100738005830F6000230F7007708803AF8007D302C
:100748007802031DA92BA83076020318AC2BAD2B19
:10075800B12B5830F6000230F7007708803AF800DD
:1007680080307802031DBA2B01307602031CBD2BA2
:10077800BE2BD32B250095017708F9007608F800E1
:10078800790DF90CF80C790DF90CF80C780896002D
:1007980016303D00A7009B0122008D11012CF71F88
:1007A800D62BD72BFB2BFF30F000FF30F10077085A
:1007B800F3007608F2008431022483317108F700CF
:1007C8007008F600250095017708F9007608F8000A
:1007D800790DF90CF80C790DF90CF80C78089600DD
:1007E80016303D009B00A70122008E13012C3D000E
:1007F8009B01A70122008D118E130800F401F50159
:10080800701C072C082C0C2C7208F4077308F53D93
:100818000130F235F30D890B0D2C0130F136F00C57
:10082800890B122C70087104031D1B2C1C2C042C22
:100838007508F1007408F000080050346C34653411
:10084800613473346534203465346E3474346534FB
:10085800723420346134203473347434723469341B
:100868006E3467340D340A34003420000C0CF20066
:10087800F20C720C0139F300F4017308F0007408EB
:10088800F100080020000C0C890C0139F200F3017A
:100898007208F0007308F1000800FE0012001E0044
:1008A800FE0B522C003422000E17080022000E13F3
:0208B800080036
:020000040001F9
:08000000FF3FFF3FFF3FFF3F00
:04000E00C40FFF1B01
:00000001FF
