:0400000080311E2805
:100008007E1480312000911E0A280B281C2891128A
:1000180023001D191028112815289D1C142815289F
:1000280019289D0190309D001C2819082000EC001B
:100038007E10090080312028353084008430850006
:10004800C030860000308700183084316F2480313A
:10005800E701E801E901EA01EB01EC01A0308400C5
:100068000030850020308431752480317E102000D6
:1000780080313E28F03021009B0023008C010F3096
:100088008D008E010F3021008C002F308D008E01E5
:1000980022008C018D018E01210097130F3024005E
:1000A8008C008D018E0129001708F039013897005E
:1000B80080309500FF30940019303D009500803065
:1000C8002C009600FC3025009F052C00950194011A
:1000D8001A303D00970080302C009900F33025003D
:1000E8009F052C00980197011B303D00A10080302E
:1000F8002C009C00CF3025009F052C009B019A0105
:1001080015303D00A3009C3025009300FC309E056F
:10011800920191011D303D00A50080303B009B00FD
:1001280040309E009F01A001920191010B30940084
:10013800533093009C3096003F309500980197010A
:100148009A01990115302000E6004B30E500BE30D9
:10015800890BAC28E50BAC28E60BAC2800001E3058
:100168003D00A40080303B00AB004030AE00AF0142
:10017800B001A201A1010B30A400B730A3009C304C
:10018800A6003F30A500A801A701AA01A9010D30CA
:100198003C00BD0024303D009C00243023009E001C
:1001A80090309D0008309F00A0309B0001309C00DB
:1001B80020009112210091160B178B17AC302900E3
:1001C8009000A0309100C030860000308700D83001
:1001D80084000030850018302000E50016001A0061
:1001E800E50BF22866302000E0008430E100093099
:1001F8008331F923803171082000E3007008E200A0
:1002080084314D248031F62880311E282000BD001D
:100218006A08803AB80080303802031D1529013079
:1002280069020318182919291F2901302000BB0069
:100238000030BC00242920006A08BC006908BB0003
:100248006808BA006708B9003008BE003108BF0066
:100258003208C0003308C1003408C2003508C300A2
:100268003608C4003708C5001F30C6000030C70074
:100278002100BF019D29FF302000C607FF30C73D80
:100288004608A03E860087010A30A000A101A2010D
:10029800A301A401A501A601A7013E08A8003F08E3
:1002A800A9004008AA004108AB004208AC00430876
:1002B800AD004408AE004508AF008231EE2281311E
:1002C80020002008303E8100FF30BB07FF30BC3DD6
:1002D800FF30B907FF30BA3D0A30A000A101A201E2
:1002E800A301A401A501A601A7013E08A8003F0893
:1002F800A9004008AA004108AB004208AC00430826
:10030800AD004408AE004508AF0082316A22813151
:1003180020002008BE002108BF002208C0002308D2
:10032800C1002408C2002508C3002608C400270805
:10033800C5002000460847040319A329A429BD299C
:100348003E083F0440044104420443044404450475
:10035800031DAF29B0293F293C08803AB8008030F6
:100368003802031DB92901303B020318BC29BD29F5
:100378003F2920004608A03EA4003A08A6003908F4
:10038800A5003D088331A023813108002000D60054
:10039800480886008701403FCA00413FCB004A0811
:1003A80084004B0885001200253A031DDC29DD294D
:1003B800512A480886008701013081074131031816
:1003C800810AE701E8010310003003180130EB004F
:1003D800FF30E900FF30EA00480886008701403F07
:1003E800D700413FD80057088400580885001200FC
:1003F800753A031D002A012A472A49088600870101
:1004080001088400850102308107003FCE00013FCA
:10041800CF00D001D101D201D301D401D5015708B1
:10042800013ECA000030583DCB00480886008701CD
:100438004A08C03F4B08C13F362A4E08B0004F0853
:10044800B1005008B2005108B3005208B400530874
:10045800B5005408B6005508B700560881310A217E
:100468008131692A57088400580885000008CA00A5
:10047800CB014B08003A0319422A472A4A08753A21
:100488000319212A472A20004808860087010130DD
:10049800810741310318810A692A480886008701C3
:1004A800403FCA00413FCB004A0884004B08850002
:1004B8000008CC00CD014C08F2004D08F3005608A6
:1004C800F40083315F238131472A080071308600A8
:1004D800003087000830F00000301E00F00B712A51
:1004E80020002008210422042304240425042604CF
:1004F80027040319802A812ADD2AF901F90A902A9A
:10050800A035A10DA20DA30DA40DA50DA60DA70D37
:100518000130F0007008F907A71F932A942A842A4B
:10052800F135F20DF30DF40DF50DF60DF70DF80D8F
:1005380027082F02031DBA2A26082E02031DBA2AED
:1005480025082D02031DBA2A24082C02031DBA2AE5
:1005580023082B02031DBA2A22082A02031DBA2ADD
:1005680021082902031DBA2A20082802031CBD2AD3
:10057800BE2ACF2A2008A8022108A93B2208AA3BA4
:100588002308AB3B2408AC3B2508AD3B2608AE3B13
:100598002708AF3B7114A736A60CA50CA40CA30C16
:1005A800A20CA10CA00C0130F902031DDC2ADD2AE3
:1005B800942A7108A0007208A1007308A2007408A8
:1005C800A3007508A4007608A5007708A600780897
:1005D800A700080020002008210422042304240482
:1005E8002504260427040319FA2AFB2A4E2BF101B5
:1005F800F10A0A2BA035A10DA20DA30DA40DA50D7E
:10060800A60DA70D0130F0007008F107A71F0D2BEC
:100618000E2BFE2A27082F02031D2C2B26082E023C
:10062800031D2C2B25082D02031D2C2B24082C021E
:10063800031D2C2B23082B02031D2C2B22082A0216
:10064800031D2C2B21082902031D2C2B200828020E
:10065800031C2F2B302B402B2008A8022108A93B74
:100668002208AA3B2308AB3B2408AC3B2508AD3B3A
:100678002608AE3B2708AF3BA736A60CA50CA40C52
:10068800A30CA20CA10CA00C0130F102031D4D2BF0
:100698004E2B0E2B2808A0002908A1002A08A2002A
:1006A8002B08A3002C08A4002D08A5002E08A600DE
:1006B8002F08A700080074080319632B642B692B03
:1006C8007408031D682B692B6E2B720884317B24F8
:1006D80083319F2B7408083E8600870116000104A9
:1006E8000319772B782B962B7408083E8600870110
:1006F800403FF500413FF6007408023E860087013E
:10070800403FF700413FF8007808803AF900760842
:10071800803A7902031D922B750877020318952BEE
:10072800962B9F2B7408023E8600870101308107B3
:1007380041310318810A08002000AB00A61BA52B35
:10074800A62BAB2B2608AA002508A900AD2BA901CA
:10075800AA01A701A801BF2B2030F2000030F30046
:1007680020002B08F40083315F23833101302000FF
:10077800A7070030A83D2808803AFD002A08803ADB
:100788007D02031DC92B29082702031CCC2BCD2B66
:10079800B02B20002B08FA0024088331D52383319D
:1007A80008002000A300A101A201EB2B2008FB00F8
:1007B800FC017B08F2007C08F3007A08F40083311E
:1007C8005F23833101302000A1070030A23D2108BA
:1007D8002307FB007B08860087010108A00020088A
:1007E800031DF72BF82BDA2B0800F5007508F2002B
:1007F800F20DF20D290010087206033972069000F6
:1008080010140D30890B062C000029009014901844
:100818000E2C0F2C0B2C0F08F4000E08F3001010F0
:100828007408F1007308F00008002000DD005A0881
:10083800DF005908DE00282C5E30C8005B08C900BC
:100848005D088131CA21843120005E0884005F0878
:1008580085001200031D312C322C202CD901DA011D
:10086800080050346C346534613473346534203492
:1008780065346E3474346534723420346134203411
:1008880073347434723469346E3467340D340A3412
:10089800003462302000E4006108DA006008D90002
:1008A8006430DB0000308431192484310800F00002
:1008B8002000111E602C612C5C2C11127008230082
:1008C8009A00080056346F346C343A342534753441
:1008D8000D340A340034FE0012001E00FE0B702C8A
:1008E8000034640080010131890B762C0034F1005A
:0A08F800710884315B24843108008C
:020000040001F9
:08000000FF3FFF3FFF3FFF3F00
:04000E00C40FFF1B01
:00000001FF
