:0400000080311E2805
:100008007E1480312000911E0A280B281C2891128A
:1000180023001D191028112815289D1C142815289F
:1000280019289D0190309D001C2819082000EC001B
:100038007E10090080312028343084008430850007
:10004800C030860000308700183084317724803132
:10005800E701E801E901EA01EB01EC01A0308400C5
:1000680000308500203084317D2480317E102000CE
:1000780080313E28F03021009B0023008C010F3096
:100088008D008E010F3021008C002F308D008E01E5
:1000980022008C018D018E01210097130F3024005E
:1000A8008C008D018E0129001708F039013897005E
:1000B80080309500FF30940019303D009500803065
:1000C8002C009600FC3025009F052C00950194011A
:1000D8001A303D00970080302C009900F33025003D
:1000E8009F052C00980197011B303D00A10080302E
:1000F8002C009C00CF3025009F052C009B019A0105
:1001080015303D00A3009C3025009300FC309E056F
:10011800920191011D303D00A50080303B009B00FD
:1001280040309E009F01A001920191010B30940084
:10013800533093009C3096003F309500980197010A
:100148009A01990115302000E6004B30E500BE30D9
:10015800890BAC28E50BAC28E60BAC2800001E3058
:100168003D00A40080303B00AB004030AE00AF0142
:10017800B001A201A1010B30A400B730A3009C304C
:10018800A6003F30A500A801A701AA01A9010D30CA
:100198003C00BD0024303D009C00243023009E001C
:1001A80090309D0008309F00A0309B0001309C00DB
:1001B80020009112210091160B178B17AC302900E3
:1001C8009000A0309100C030860000308700D83001
:1001D80084000030850018302000E50016001A0061
:1001E800E50BF22865302000E0008430E10084311E
:1001F8006E24803177082000E3007608E20084311D
:100208004C248031F62880311E282000BD006A0861
:10021800803AB80080303802031D14290130690281
:100228000318172918291E2901302000BB000030A7
:10023800BC00232920006A08BC006908BB006808C4
:10024800BA006708B9003008BE003108BF0032089C
:10025800C0003308C1003408C2003508C30036089E
:10026800C4003708C5001F30C6000030C700210091
:10027800BF019C29FF302000C607FF30C73D460854
:10028800A03E860087010A30A000A101A201A301B7
:10029800A401A501A601A7013E08A8003F08A900DE
:1002A8004008AA004108AB004208AC004308AD0072
:1002B8004408AE004508AF008231ED2281312000AC
:1002C8002008303E8100FF30BB07FF30BC3DFF30C7
:1002D800B907FF30BA3D0A30A000A101A201A3016D
:1002E800A401A501A601A7013E08A8003F08A9008E
:1002F8004008AA004108AB004208AC004308AD0022
:100308004408AE004508AF008231692281312000DF
:100318002008BE002108BF002208C0002308C10031
:100328002408C2002508C3002608C4002708C50001
:100338002000460847040319A229A329BC293E081E
:100348003F04400441044204430444044504031D9B
:10035800AE29AF293E293C08803AB80080303802DF
:10036800031DB82901303B020318BB29BC293E29CB
:1003780020004608A03EA4003A08A6003908A500B7
:100388003D0883319F23813108002000D6004808AA
:1003980086008701403FCA00413FCB004A088400DD
:1003A8004B0885001200253A031DDB29DC29502A59
:1003B8004808860087010130810741310318810A06
:1003C800E701E8010310003003180130EB00FF30AB
:1003D800E900FF30EA00480886008701403FD7005F
:1003E800413FD80057088400580885001200753A24
:1003F800031DFF29002A462A4908860087010108AB
:100408008400850102308107003FCE00013FCF0004
:10041800D001D101D201D301D401D5015708013E41
:10042800CA000030583DCB004808860087014A08BA
:10043800C03F4B08C13F352A4E08B0004F08B100F5
:100448005008B2005108B3005208B4005308B50070
:100458005408B6005508B700560881310921813182
:10046800682A57088400580885000008CA00CB018C
:100478004B08003A0319412A462A4A08753A0319D3
:10048800202A462A20004808860087010130810773
:1004980041310318810A682A480886008701403FCD
:1004A800CA00413FCB004A0884004B088500000879
:1004B800CC00CD014C08F2004D08F3005608F400BA
:1004C80083315E238131462A08007130860000306E
:1004D80087000830F00000301E00F00B702A200062
:1004E80020082104220423042404250426042704C4
:1004F80003197F2A802ADC2AF901F90A8F2AA035F4
:10050800A10DA20DA30DA40DA50DA60DA70D0130DB
:10051800F0007008F907A71F922A932A832AF13559
:10052800F20DF30DF40DF50DF60DF70DF80D270886
:100538002F02031DB92A26082E02031DB92A2508F1
:100548002D02031DB92A24082C02031DB92A2308E9
:100558002B02031DB92A22082A02031DB92A2108E1
:100568002902031DB92A20082802031CBC2ABD2A17
:10057800CE2A2008A8022108A93B2208AA3B230862
:10058800AB3B2408AC3B2508AD3B2608AE3B27080F
:10059800AF3B7114A736A60CA50CA40CA30CA20C97
:1005A800A10CA00C0130F902031DDB2ADC2A932AD6
:1005B8007108A0007208A1007308A2007408A300C3
:1005C8007508A4007608A5007708A6007808A70093
:1005D8000800200020082104220423042404250400
:1005E800260427040319F92AFA2A4D2BF101F10AE6
:1005F800092BA035A10DA20DA30DA40DA50DA60DC7
:10060800A70D0130F0007008F107A71F0C2B0D2B68
:10061800FD2A27082F02031D2B2B26082E02031D57
:100628002B2B25082D02031D2B2B24082C02031D20
:100638002B2B23082B02031D2B2B22082A02031D18
:100648002B2B21082902031D2B2B20082802031C11
:100658002E2B2F2B3F2B2008A8022108A93B22086C
:10066800AA3B2308AB3B2408AC3B2508AD3B260836
:10067800AE3B2708AF3BA736A60CA50CA40CA30CD1
:10068800A20CA10CA00C0130F102031D4C2B4D2B28
:100698000D2B2808A0002908A1002A08A2002B0871
:1006A800A3002C08A4002D08A5002E08A6002F08DA
:1006B800A700080074080319622B632B682B7408C1
:1006C800031D672B682B6D2B7208843183248331BB
:1006D8009E2B7408083E8600870116000104031942
:1006E800762B772B952B7408083E86008701403FB0
:1006F800F500413FF6007408023E86008701403F3E
:10070800F700413FF8007808803AF9007608803A07
:100718007902031D912B750877020318942B952BEA
:100728009E2B7408023E8600870101308107413103
:100738000318810A08002000AB00A61BA42BA52BD8
:10074800AA2B2608AA002508A900AC2BA901AA01F2
:10075800A701A801BE2B2030F2000030F3002000D2
:100768002B08F40083315E23833101302000A70772
:100778000030A83D2808803AFD002A08803A7D020A
:10078800031DC82B29082702031CCB2BCC2BAF2B0E
:1007980020002B08FA0024088331D4238331080071
:1007A8002000A300A101A201EA2B2008FB00FC0104
:1007B8007B08F2007C08F3007A08F40083315E239A
:1007C800833101302000A1070030A23D2108230712
:1007D800FB007B08860087010108A0002008031D94
:1007E800F62BF72BD92B0800F5007508F200F20D4F
:1007F800F20D2900100872060339720690001014D1
:100808000D30890B052C00002900901490180D2C30
:100818000E2C0A2C0F08F4000E08F30010107408B0
:10082800F1007308F00008002000DD005A08DF001E
:100838005908DE00272C5E30C8005B08C9005D0837
:100848008131C921843120005E0884005F08850059
:100858001200031D302C312C1F2CD901DA0108009D
:1008680050346C3465346134733465342034653401
:100878006E34743465347234203461342034733403
:100888007434723469346E3467340D340A34003485
:1008980062302000E4006108DA006008D9006430A2
:1008A800DB0000308431182484310800F000200077
:1008B800111E5F2C602C5B2C1112700823009A000B
:1008C800080056346F346C343A34253475340D349A
:1008D8000A34003408308331F82384317108F70072
:1008E8007008F6000800FE0012001E00FE0B782CAF
:1008F8000034640080010131890B7E2C0034F10042
:0A090800710884315A24843108007C
:020000040001F9
:08000000FF3FFF3FFF3FFF3F00
:04000E00C40FFF1B01
:00000001FF
