:0400000080311E2805
:100008007E1480312000911E0A280B281C2891128A
:1000180023001D191028112815289D1C142815289F
:1000280019289D0190309D001C2819082000D20035
:100038007E100900803120280F308400813085002F
:100048003A30860000308700183081313221803103
:10005800D2017E10200080313128F03021009B0031
:1000680023008C010F308D008E010F3021008C0091
:100078002F308D008E0122008C018D018E01210010
:1000880097130F3024008C008D018E01290017086A
:10009800F0390138970080309500FF30940019300E
:1000A8003D00950080302C009600FC3025009F050F
:1000B8002C00950194011A303D00970080302C00E7
:1000C8009900F33025009F052C00980197011B30FB
:1000D8003D00A10080302C009C00CF3025009F05FA
:1000E8002C009B019A0115303D00A3009C3025008F
:1000F8009300FC309E05920191011D303D00A50042
:1001080080303B009B0040309E009F01A00192017F
:1001180091010B309400533093009C3096003F308F
:100128009500980197019A0199011530F2004B301A
:10013800F100BE30890B9E28F10B9E28F20B9E28F9
:1001480000321E303D00A40080303B00AB00403040
:10015800AE00AF01B001A201A1010B30A400B7307D
:10016800A3009C30A6003F30A500A801A701AA0162
:10017800A9010D303C00BD0024303D009C00243016
:1001880023009E0090309D0008309F00A0309B0007
:1001980001309C0020009112210091160B178B173B
:1001A8003A30860000308700203084000030850017
:1001B8001830F10016001A00F10BDE282000B801F3
:1001C800B901F3283808203E8600870101088131EB
:1001D8002721803101302000B8070030B93D3808A8
:1001E800203E860087010108031DFB28FC28E6281D
:1001F80052088131272180310530F2000F30F1009B
:10020800F130890B0529F10B0529F20B05290000AE
:10021800E22880311E2850346C34653461347334DC
:100228006534203465346E34743465347234203463
:100238006134203473347434723469346E346734FE
:100248000D340A340034F0002000111E2C292D2909
:1002580028291112700823009A000800FE001200D5
:080268001E00FE0B33290034D7
:020000040001F9
:08000000FF3FFF3FFF3FFF3F00
:04000E00C40FFF1B01
:00000001FF
