:08000000803102288731FD2F39
:100A440020000C0CF200F20C720C0139F300F401DA
:100A54007308F0007408F1000800F401F501701C3B
:100A6400342D352D392D7208F4077308F53D013006
:100A7400F235F30D890B3A2D0130F136F00C890B68
:100A84003F2D70087104031D482D492D312D750823
:100A9400F1007408F00008007708803AF80082300A
:100AA4007802031D572D59307602031C5A2D5B2DF5
:100AB4005F2D5830F6000230F7007708803AF800CE
:100AC4007D307802031D682DA830760203186B2D43
:100AD4006C2D702D5830F6000230F7007708803AFC
:100AE400F80080307802031D792D01307602031C52
:100AF4007C2D7D2D922D2C0094017708F900760829
:100B0400F800790DF90CF80C790DF90CF80C78084B
:100B1400950019303D009500940122000C12C02D5F
:100B2400F71F952D962DBA2DFF30F000FF30F10000
:100B34007708F3007608F20085312F258531710896
:100B4400F7007008F6002C0094017708F900760885
:100B5400F800790DF90CF80C790DF90CF80C7808FB
:100B6400950019303D009400950122008C12C02D8F
:100B74003D009401950122000C128C1208007708A4
:100B8400803AF80082307802031DCA2D593076026B
:100B9400031CCD2DCE2DD22D5830F6000230F70097
:100BA4007708803AF8007D307802031DDB2DA830E9
:100BB40076020318DE2DDF2DE32D5830F6000230C7
:100BC400F7007708803AF80080307802031DEC2D96
:100BD40001307602031CEF2DF02D052E2C00970119
:100BE4007708F9007608F800790DF90CF80C790DFE
:100BF400F90CF80C780898001A303D00970096011B
:100C040022000C13332EF71F082E092E2D2EFF3031
:100C1400F000FF30F1007708F3007608F200853128
:100C24002F2585317108F7007008F6002C00970114
:100C34007708F9007608F800790DF90CF80C790DAD
:100C4400F90CF80C780898001A303D0096009701CA
:100C540022008C13332E3D009601970122000C13C1
:100C64008C1308007708803AF80082307802031D5C
:100C74003D2E59307602031C402E412E452E58300D
:100C8400F6000230F7007708803AF8007D307802E9
:100C9400031D4E2EA83076020318512E522E562EC6
:100CA4005830F6000230F7007708803AF8008030B8
:100CB4007802031D5F2E01307602031C622E632E20
:100CC400782E2C009A017708F9007608F800790D3F
:100CD400F90CF80C790DF90CF80C78089B001B3012
:100CE4003D00A100A00122000E10A62EF71F7B2EAE
:100CF4007C2EA02EFF30F000FF30F1007708F300C7
:100D04007608F20085312F2586317108F7007008C6
:100D1400F6002C009A017708F9007608F800790D9E
:100D2400F90CF80C790DF90CF80C78089B001B30C1
:100D34003D00A000A10122008E10A62E3D00A001BE
:100D4400A10122000E108E1008007708803AF800E6
:100D540082307802031DB02E59307602031CB32E64
:100D6400B42EB82E5830F6000230F7007708803AD7
:100D7400F8007D307802031DC12EA83076020318D6
:100D8400C42EC52EC92E5830F6000230F70077085D
:100D9400803AF80080307802031DD22E01307602AA
:100DA400031CD52ED62EEB2E250091017708F900D1
:100DB4007608F800790DF90CF80C790DF90CF80C9B
:100DC4007808920015303D00A300A20122000E1104
:100DD400192FF71FEE2EEF2E132FFF30F000FF30E8
:100DE400F1007708F3007608F20085312F2586316B
:100DF4007108F7007008F600250091017708F900E2
:100E04007608F800790DF90CF80C790DF90CF80C4A
:100E14007808920015303D00A200A30122008E1133
:100E2400192F3D00A201A30122000E118E1108000A
:100E3400F03021009B0023008C010F308D008E01C7
:100E44000F3021008C002F308D008E0122008C0188
:100E54008D018E01210097130F3024008C008D0129
:100E64008E0129001708F039013897008030950069
:100E7400FF30940019303D00950080302C0096001E
:100E8400FC3025009F052C00950194011A303D008B
:100E9400970080302C009900F33025009F052C002A
:100EA400980197011B303D00A10080302C009C006C
:100EB400CF3025009F052C009B019A0115303D0081
:100EC400A3009C3025009300FC309E059201910103
:100ED400A8302000A000FD30A10020002108F70068
:100EE4002008F60085314E25873120002108F700BF
:100EF4002008F6008531C1258731853122258731C7
:100F0400700871040319872F882F982F2000210857
:100F1400F7002008F6008631A72687312000210833
:100F2400F7002008F6008631342687316830FA004D
:100F3400E430890B9B2FFA0B9B2F003201302000E9
:100F4400A0070030A13D2108803AFA0082307A02DD
:100F5400031DAE2F59302002031CB12FB22F6F2F67
:100F640058302000A2000230A30020002308F7001C
:100F74002208F60085314E25873120002308F7002A
:100F84002208F6008531C125873185312225873134
:100F9400700871040319CF2FD02FE02F20002308ED
:100FA400F7002208F6008631A7268731200023089F
:100FB400F7002208F6008631342687316830FA00BB
:100FC400E430890BE32FFA0BE32F0032FF302000CB
:100FD400A207FF30A33D2308803AFA007D307A024D
:100FE400031DF62FA83022020318F92FFA2FB72F6A
:0C0FF4006A2F80310228200087311A2F5C
:020000040001F9
:08000000FF3FFF3FFF3FFF3F00
:04000E00C40FFF1B01
:00000001FF
